{
  "_format": "hh-sol-artifact-1",
  "contractName": "Canvas",
  "sourceName": "contracts/Canvas.sol",
  "abi": [
    {
      "inputs": [],
      "stateMutability": "nonpayable",
      "type": "constructor"
    },
    {
      "inputs": [
        {
          "internalType": "uint256",
          "name": "tokenID",
          "type": "uint256"
        }
      ],
      "name": "CantTransferUntilLocked",
      "type": "error"
    },
    {
      "inputs": [
        {
          "internalType": "uint256",
          "name": "tokenID",
          "type": "uint256"
        }
      ],
      "name": "CanvasIsLocked",
      "type": "error"
    },
    {
      "inputs": [
        {
          "internalType": "uint256",
          "name": "color",
          "type": "uint256"
        },
        {
          "internalType": "address",
          "name": "owner",
          "type": "address"
        }
      ],
      "name": "ColorNotOwnedByAddress",
      "type": "error"
    },
    {
      "inputs": [
        {
          "internalType": "uint16",
          "name": "offset",
          "type": "uint16"
        }
      ],
      "name": "InvalidPixelOffset",
      "type": "error"
    },
    {
      "inputs": [
        {
          "internalType": "uint256",
          "name": "tokenID",
          "type": "uint256"
        }
      ],
      "name": "InvalidTokenID",
      "type": "error"
    },
    {
      "inputs": [
        {
          "internalType": "uint256",
          "name": "tokenID",
          "type": "uint256"
        }
      ],
      "name": "NotReadyToLock",
      "type": "error"
    },
    {
      "inputs": [
        {
          "internalType": "uint256",
          "name": "tokenID",
          "type": "uint256"
        }
      ],
      "name": "OnlyOneUnlockedCanvas",
      "type": "error"
    },
    {
      "anonymous": false,
      "inputs": [
        {
          "indexed": true,
          "internalType": "address",
          "name": "owner",
          "type": "address"
        },
        {
          "indexed": true,
          "internalType": "address",
          "name": "approved",
          "type": "address"
        },
        {
          "indexed": true,
          "internalType": "uint256",
          "name": "tokenId",
          "type": "uint256"
        }
      ],
      "name": "Approval",
      "type": "event"
    },
    {
      "anonymous": false,
      "inputs": [
        {
          "indexed": true,
          "internalType": "address",
          "name": "owner",
          "type": "address"
        },
        {
          "indexed": true,
          "internalType": "address",
          "name": "operator",
          "type": "address"
        },
        {
          "indexed": false,
          "internalType": "bool",
          "name": "approved",
          "type": "bool"
        }
      ],
      "name": "ApprovalForAll",
      "type": "event"
    },
    {
      "anonymous": false,
      "inputs": [
        {
          "indexed": false,
          "internalType": "uint256",
          "name": "tokenID",
          "type": "uint256"
        },
        {
          "indexed": false,
          "internalType": "string",
          "name": "title",
          "type": "string"
        }
      ],
      "name": "CanvasLocked",
      "type": "event"
    },
    {
      "anonymous": false,
      "inputs": [
        {
          "indexed": false,
          "internalType": "uint256",
          "name": "tokenID",
          "type": "uint256"
        },
        {
          "indexed": false,
          "internalType": "uint16[]",
          "name": "colorIds",
          "type": "uint16[]"
        },
        {
          "indexed": false,
          "internalType": "uint16[]",
          "name": "positions",
          "type": "uint16[]"
        },
        {
          "indexed": false,
          "internalType": "address",
          "name": "sender",
          "type": "address"
        }
      ],
      "name": "CanvasUpdated",
      "type": "event"
    },
    {
      "anonymous": false,
      "inputs": [
        {
          "indexed": true,
          "internalType": "address",
          "name": "previousOwner",
          "type": "address"
        },
        {
          "indexed": true,
          "internalType": "address",
          "name": "newOwner",
          "type": "address"
        }
      ],
      "name": "OwnershipTransferred",
      "type": "event"
    },
    {
      "anonymous": false,
      "inputs": [
        {
          "indexed": true,
          "internalType": "address",
          "name": "from",
          "type": "address"
        },
        {
          "indexed": true,
          "internalType": "address",
          "name": "to",
          "type": "address"
        },
        {
          "indexed": true,
          "internalType": "uint256",
          "name": "tokenId",
          "type": "uint256"
        }
      ],
      "name": "Transfer",
      "type": "event"
    },
    {
      "inputs": [],
      "name": "CANVAS_HEIGHT",
      "outputs": [
        {
          "internalType": "uint256",
          "name": "",
          "type": "uint256"
        }
      ],
      "stateMutability": "view",
      "type": "function"
    },
    {
      "inputs": [],
      "name": "CANVAS_WIDTH",
      "outputs": [
        {
          "internalType": "uint256",
          "name": "",
          "type": "uint256"
        }
      ],
      "stateMutability": "view",
      "type": "function"
    },
    {
      "inputs": [],
      "name": "MINIMUM_UNLOCK_TIME",
      "outputs": [
        {
          "internalType": "uint256",
          "name": "",
          "type": "uint256"
        }
      ],
      "stateMutability": "view",
      "type": "function"
    },
    {
      "inputs": [],
      "name": "NUM_PIXELS",
      "outputs": [
        {
          "internalType": "uint256",
          "name": "",
          "type": "uint256"
        }
      ],
      "stateMutability": "view",
      "type": "function"
    },
    {
      "inputs": [
        {
          "internalType": "address",
          "name": "to",
          "type": "address"
        },
        {
          "internalType": "uint256",
          "name": "tokenId",
          "type": "uint256"
        }
      ],
      "name": "approve",
      "outputs": [],
      "stateMutability": "nonpayable",
      "type": "function"
    },
    {
      "inputs": [
        {
          "internalType": "address",
          "name": "owner",
          "type": "address"
        }
      ],
      "name": "balanceOf",
      "outputs": [
        {
          "internalType": "uint256",
          "name": "",
          "type": "uint256"
        }
      ],
      "stateMutability": "view",
      "type": "function"
    },
    {
      "inputs": [
        {
          "internalType": "uint256",
          "name": "",
          "type": "uint256"
        }
      ],
      "name": "canvasData",
      "outputs": [
        {
          "internalType": "uint256",
          "name": "createdTime",
          "type": "uint256"
        },
        {
          "internalType": "string",
          "name": "title",
          "type": "string"
        },
        {
          "internalType": "bool",
          "name": "locked",
          "type": "bool"
        },
        {
          "internalType": "string",
          "name": "svg",
          "type": "string"
        }
      ],
      "stateMutability": "view",
      "type": "function"
    },
    {
      "inputs": [
        {
          "internalType": "uint256",
          "name": "tokenID",
          "type": "uint256"
        },
        {
          "internalType": "uint16[]",
          "name": "colorIds",
          "type": "uint16[]"
        },
        {
          "internalType": "uint16[]",
          "name": "positions",
          "type": "uint16[]"
        }
      ],
      "name": "commitPixels",
      "outputs": [],
      "stateMutability": "nonpayable",
      "type": "function"
    },
    {
      "inputs": [],
      "name": "createNewCanvas",
      "outputs": [
        {
          "internalType": "uint256",
          "name": "",
          "type": "uint256"
        }
      ],
      "stateMutability": "nonpayable",
      "type": "function"
    },
    {
      "inputs": [
        {
          "internalType": "uint256",
          "name": "tokenId",
          "type": "uint256"
        }
      ],
      "name": "getApproved",
      "outputs": [
        {
          "internalType": "address",
          "name": "",
          "type": "address"
        }
      ],
      "stateMutability": "view",
      "type": "function"
    },
    {
      "inputs": [
        {
          "internalType": "uint256",
          "name": "tokenId",
          "type": "uint256"
        }
      ],
      "name": "getContributors",
      "outputs": [
        {
          "internalType": "address[]",
          "name": "contributors",
          "type": "address[]"
        },
        {
          "internalType": "uint256[]",
          "name": "pixelCount",
          "type": "uint256[]"
        }
      ],
      "stateMutability": "view",
      "type": "function"
    },
    {
      "inputs": [
        {
          "internalType": "uint256",
          "name": "tokenId",
          "type": "uint256"
        }
      ],
      "name": "getLockTime",
      "outputs": [
        {
          "internalType": "uint256",
          "name": "",
          "type": "uint256"
        }
      ],
      "stateMutability": "view",
      "type": "function"
    },
    {
      "inputs": [
        {
          "internalType": "uint256",
          "name": "tokenId",
          "type": "uint256"
        }
      ],
      "name": "getPixels",
      "outputs": [
        {
          "internalType": "uint16[4096]",
          "name": "",
          "type": "uint16[4096]"
        }
      ],
      "stateMutability": "view",
      "type": "function"
    },
    {
      "inputs": [
        {
          "internalType": "address",
          "name": "owner",
          "type": "address"
        },
        {
          "internalType": "address",
          "name": "operator",
          "type": "address"
        }
      ],
      "name": "isApprovedForAll",
      "outputs": [
        {
          "internalType": "bool",
          "name": "",
          "type": "bool"
        }
      ],
      "stateMutability": "view",
      "type": "function"
    },
    {
      "inputs": [
        {
          "internalType": "uint256",
          "name": "tokenID",
          "type": "uint256"
        },
        {
          "internalType": "string",
          "name": "title",
          "type": "string"
        }
      ],
      "name": "lockCanvas",
      "outputs": [],
      "stateMutability": "nonpayable",
      "type": "function"
    },
    {
      "inputs": [],
      "name": "name",
      "outputs": [
        {
          "internalType": "string",
          "name": "",
          "type": "string"
        }
      ],
      "stateMutability": "view",
      "type": "function"
    },
    {
      "inputs": [
        {
          "internalType": "address",
          "name": "",
          "type": "address"
        },
        {
          "internalType": "address",
          "name": "",
          "type": "address"
        },
        {
          "internalType": "uint256",
          "name": "",
          "type": "uint256"
        },
        {
          "internalType": "bytes",
          "name": "",
          "type": "bytes"
        }
      ],
      "name": "onERC721Received",
      "outputs": [
        {
          "internalType": "bytes4",
          "name": "",
          "type": "bytes4"
        }
      ],
      "stateMutability": "nonpayable",
      "type": "function"
    },
    {
      "inputs": [],
      "name": "owner",
      "outputs": [
        {
          "internalType": "address",
          "name": "",
          "type": "address"
        }
      ],
      "stateMutability": "view",
      "type": "function"
    },
    {
      "inputs": [
        {
          "internalType": "uint256",
          "name": "tokenId",
          "type": "uint256"
        }
      ],
      "name": "ownerOf",
      "outputs": [
        {
          "internalType": "address",
          "name": "",
          "type": "address"
        }
      ],
      "stateMutability": "view",
      "type": "function"
    },
    {
      "inputs": [],
      "name": "renounceOwnership",
      "outputs": [],
      "stateMutability": "nonpayable",
      "type": "function"
    },
    {
      "inputs": [
        {
          "internalType": "address",
          "name": "from",
          "type": "address"
        },
        {
          "internalType": "address",
          "name": "to",
          "type": "address"
        },
        {
          "internalType": "uint256",
          "name": "tokenId",
          "type": "uint256"
        }
      ],
      "name": "safeTransferFrom",
      "outputs": [],
      "stateMutability": "nonpayable",
      "type": "function"
    },
    {
      "inputs": [
        {
          "internalType": "address",
          "name": "from",
          "type": "address"
        },
        {
          "internalType": "address",
          "name": "to",
          "type": "address"
        },
        {
          "internalType": "uint256",
          "name": "tokenId",
          "type": "uint256"
        },
        {
          "internalType": "bytes",
          "name": "data",
          "type": "bytes"
        }
      ],
      "name": "safeTransferFrom",
      "outputs": [],
      "stateMutability": "nonpayable",
      "type": "function"
    },
    {
      "inputs": [
        {
          "internalType": "address",
          "name": "operator",
          "type": "address"
        },
        {
          "internalType": "bool",
          "name": "approved",
          "type": "bool"
        }
      ],
      "name": "setApprovalForAll",
      "outputs": [],
      "stateMutability": "nonpayable",
      "type": "function"
    },
    {
      "inputs": [
        {
          "internalType": "bytes4",
          "name": "interfaceId",
          "type": "bytes4"
        }
      ],
      "name": "supportsInterface",
      "outputs": [
        {
          "internalType": "bool",
          "name": "",
          "type": "bool"
        }
      ],
      "stateMutability": "view",
      "type": "function"
    },
    {
      "inputs": [],
      "name": "symbol",
      "outputs": [
        {
          "internalType": "string",
          "name": "",
          "type": "string"
        }
      ],
      "stateMutability": "view",
      "type": "function"
    },
    {
      "inputs": [
        {
          "internalType": "uint256",
          "name": "tokenID",
          "type": "uint256"
        }
      ],
      "name": "tokenURI",
      "outputs": [
        {
          "internalType": "string",
          "name": "",
          "type": "string"
        }
      ],
      "stateMutability": "view",
      "type": "function"
    },
    {
      "inputs": [],
      "name": "totalSupply",
      "outputs": [
        {
          "internalType": "uint256",
          "name": "",
          "type": "uint256"
        }
      ],
      "stateMutability": "view",
      "type": "function"
    },
    {
      "inputs": [
        {
          "internalType": "address",
          "name": "from",
          "type": "address"
        },
        {
          "internalType": "address",
          "name": "to",
          "type": "address"
        },
        {
          "internalType": "uint256",
          "name": "tokenId",
          "type": "uint256"
        }
      ],
      "name": "transferFrom",
      "outputs": [],
      "stateMutability": "nonpayable",
      "type": "function"
    },
    {
      "inputs": [
        {
          "internalType": "address",
          "name": "newOwner",
          "type": "address"
        }
      ],
      "name": "transferOwnership",
      "outputs": [],
      "stateMutability": "nonpayable",
      "type": "function"
    }
  ],
  "bytecode": "0x60e0604052603560808181529062002c3b60a039600990620000229082620001ad565b503480156200003057600080fd5b506040518060400160405280600681526020016543616e76617360d01b8152506040518060400160405280600681526020016543414e56415360d01b8152508160009081620000809190620001ad565b5060016200008f8282620001ad565b505050620000ac620000a6620000b260201b60201c565b620000b6565b62000279565b3390565b600680546001600160a01b038381166001600160a01b0319831681179093556040519116919082907f8be0079c531659141344cd1fd0a4f28419497f9722a3daafe3b4186f6b6457e090600090a35050565b634e487b7160e01b600052604160045260246000fd5b600181811c908216806200013357607f821691505b6020821081036200015457634e487b7160e01b600052602260045260246000fd5b50919050565b601f821115620001a857600081815260208120601f850160051c81016020861015620001835750805b601f850160051c820191505b81811015620001a4578281556001016200018f565b5050505b505050565b81516001600160401b03811115620001c957620001c962000108565b620001e181620001da84546200011e565b846200015a565b602080601f831160018114620002195760008415620002005750858301515b600019600386901b1c1916600185901b178555620001a4565b600085815260208120601f198616915b828110156200024a5788860151825594840194600190910190840162000229565b5085821015620002695787850151600019600388901b60f8161c191681555b5050505050600190811b01905550565b6129b280620002896000396000f3fe608060405234801561001057600080fd5b50600436106101cf5760003560e01c80638da5cb5b11610104578063ca1872b4116100a2578063eda6d23411610071578063eda6d234146103c4578063eef3200c146103d7578063f2fde38b146103ea578063feb923e1146103fd57600080fd5b8063ca1872b4146103a0578063d479f666146103a9578063e985e9c5146103b1578063ed4127df1461032b57600080fd5b80639a80447e116100de5780639a80447e1461035f578063a22cb46514610367578063b88d4fde1461037a578063c87b56dd1461038d57600080fd5b80638da5cb5b1461033357806390fc7cdb1461034457806395d89b411461035757600080fd5b806323b872dd116101715780636352211e1161014b5780636352211e146102fd57806370a0823114610310578063715018a61461032357806371bf439e1461032b57600080fd5b806323b872dd146102b65780633c1ab00f146102c957806342842e0e146102ea57600080fd5b8063095ea7b3116101ad578063095ea7b31461023c578063150b7a021461025157806318160ddd1461027d5780631e2cd4031461029357600080fd5b806301ffc9a7146101d457806306fdde03146101fc578063081812fc14610211575b600080fd5b6101e76101e2366004611cc9565b61041d565b60405190151581526020015b60405180910390f35b61020461046f565b6040516101f39190611d36565b61022461021f366004611d49565b610501565b6040516001600160a01b0390911681526020016101f3565b61024f61024a366004611d7e565b610528565b005b61026461025f366004611dbe565b610642565b6040516001600160e01b031990911681526020016101f3565b610285610653565b6040519081526020016101f3565b6102a66102a1366004611d49565b610663565b6040516101f39493929190611e9a565b61024f6102c4366004611ed8565b6107a6565b6102dc6102d7366004611d49565b6107d7565b6040516101f3929190611f14565b61024f6102f8366004611ed8565b61093b565b61022461030b366004611d49565b610956565b61028561031e366004611f98565b6109b6565b61024f610a3c565b610285604081565b6006546001600160a01b0316610224565b61024f610352366004611fb3565b610a50565b610204610b70565b610285610b7f565b61024f61037536600461202f565b610c1f565b61024f610388366004611dbe565b610c2e565b61020461039b366004611d49565b610c66565b61028561708081565b610285610d75565b6101e76103bf36600461206b565b610d83565b6102856103d2366004611d49565b610db1565b61024f6103e53660046120ea565b610e00565b61024f6103f8366004611f98565b610ffe565b61041061040b366004611d49565b611077565b6040516101f39190612164565b60006001600160e01b031982166380ac58cd60e01b148061044e57506001600160e01b03198216635b5e139f60e01b145b8061046957506301ffc9a760e01b6001600160e01b03198316145b92915050565b60606000805461047e9061219c565b80601f01602080910402602001604051908101604052809291908181526020018280546104aa9061219c565b80156104f75780601f106104cc576101008083540402835291602001916104f7565b820191906000526020600020905b8154815290600101906020018083116104da57829003601f168201915b5050505050905090565b600061050c82611119565b506000908152600460205260409020546001600160a01b031690565b600061053382610956565b9050806001600160a01b0316836001600160a01b0316036105a55760405162461bcd60e51b815260206004820152602160248201527f4552433732313a20617070726f76616c20746f2063757272656e74206f776e656044820152603960f91b60648201526084015b60405180910390fd5b336001600160a01b03821614806105c157506105c18133610d83565b6106335760405162461bcd60e51b815260206004820152603d60248201527f4552433732313a20617070726f76652063616c6c6572206973206e6f7420746f60448201527f6b656e206f776e6572206f7220617070726f76656420666f7220616c6c000000606482015260840161059c565b61063d8383611169565b505050565b630a85bd0160e11b5b949350505050565b600061065e60085490565b905090565b600760205260009081526040902080546001820180549192916106859061219c565b80601f01602080910402602001604051908101604052809291908181526020018280546106b19061219c565b80156106fe5780601f106106d3576101008083540402835291602001916106fe565b820191906000526020600020905b8154815290600101906020018083116106e157829003601f168201915b505050600284015461010385018054949560ff9092169491935091506107239061219c565b80601f016020809104026020016040519081016040528092919081815260200182805461074f9061219c565b801561079c5780601f106107715761010080835404028352916020019161079c565b820191906000526020600020905b81548152906001019060200180831161077f57829003601f168201915b5050505050905084565b6107b033826111d7565b6107cc5760405162461bcd60e51b815260040161059c906121d6565b61063d838383611235565b6060806107e3836113a6565b6108035760405163b7c882eb60e01b81526004810184905260240161059c565b6000838152600760209081526040918290206101058101805484518185028101850190955280855291939290919083018282801561086a57602002820191906000526020600020905b81546001600160a01b0316815260019091019060200180831161084c575b50505050509250825167ffffffffffffffff81111561088b5761088b611da8565b6040519080825280602002602001820160405280156108b4578160200160208202803683370190505b50915060005b835181101561093457816101040160008583815181106108dc576108dc612223565b60200260200101516001600160a01b03166001600160a01b031681526020019081526020016000205483828151811061091757610917612223565b60209081029190910101528061092c8161224f565b9150506108ba565b5050915091565b61063d83838360405180602001604052806000815250610c2e565b6000818152600260205260408120546001600160a01b0316806104695760405162461bcd60e51b8152602060048201526018602482015277115490cdcc8c4e881a5b9d985b1a59081d1bdad95b88125160421b604482015260640161059c565b60006001600160a01b038216610a205760405162461bcd60e51b815260206004820152602960248201527f4552433732313a2061646472657373207a65726f206973206e6f7420612076616044820152683634b21037bbb732b960b91b606482015260840161059c565b506001600160a01b031660009081526003602052604090205490565b610a446113c3565b610a4e600061141d565b565b610a59836113a6565b610a795760405163b7c882eb60e01b81526004810184905260240161059c565b6000838152600760205260409020600281015460ff1615610ab05760405163080ed80760e11b81526004810185905260240161059c565b805461708090610ac09042612268565b1015610ae2576040516380a50b3360e01b81526004810185905260240161059c565b60028101805460ff191660019081179091558101610b018385836122c9565b50610b0b8461146f565b610103820190610b1b9082612389565b50610b2f610b2885610956565b3386611235565b7fae209ed41690a2178248bb67a9614a5c205d9e89a83ac942b6aeab4fe8a65e1b848484604051610b6293929190612449565b60405180910390a150505050565b60606001805461047e9061219c565b600080610b8b60085490565b90508015610bcb576000818152600760205260409020600281015460ff16610bc95760405163234d7b7560e21b81526004810183905260240161059c565b505b610bd9600880546001019055565b610beb30610be660085490565b611618565b600060076000610bfa60085490565b815260208101919091526040016000204281559050610c1860085490565b9250505090565b610c2a338383611632565b5050565b610c3833836111d7565b610c545760405162461bcd60e51b815260040161059c906121d6565b610c6084848484611700565b50505050565b6060610c71826113a6565b610c915760405163b7c882eb60e01b81526004810183905260240161059c565b6000828152600760205260409020600281015460ff1615610ce257600081600101848361010301604051602001610cca939291906124f2565b60408051601f19818403018152919052949350505050565b60098054610cef9061219c565b80601f0160208091040260200160405190810160405280929190818152602001828054610d1b9061219c565b8015610d685780601f10610d3d57610100808354040283529160200191610d68565b820191906000526020600020905b815481529060010190602001808311610d4b57829003601f168201915b5050505050915050919050565b610d8060408061259b565b81565b6001600160a01b03918216600090815260056020908152604080832093909416825291909152205460ff1690565b6000610dbc826113a6565b610ddc5760405163b7c882eb60e01b81526004810183905260240161059c565b60008281526007602052604090208054610df990617080906125b2565b9392505050565b610e09856113a6565b610e295760405163b7c882eb60e01b81526004810186905260240161059c565b6000858152600760205260409020600281015460ff1615610e605760405163080ed80760e11b81526004810187905260240161059c565b60005b84811015610f4a576000868683818110610e7f57610e7f612223565b9050602002016020810190610e9491906125d7565b90506000858584818110610eaa57610eaa612223565b9050602002016020810190610ebf91906125d7565b9050610ecc60408061259b565b8161ffff1610610ef55760405163087243b960e11b815261ffff8216600482015260240161059c565b81846003018261ffff166110008110610f1057610f10612223565b601091828204019190066002026101000a81548161ffff021916908361ffff16021790555050508080610f429061224f565b915050610e63565b50336000908152610104820160205260408120549003610f8d5761010581018054600181018255600091825260209091200180546001600160a01b031916331790555b3360009081526101048201602052604081208054869290610faf9084906125b2565b90915550506040517f584815e3cc920c54dadff2f77e15e36d947dc5253366676335be301fd2d06ff990610fee90889088908890889088903390612634565b60405180910390a1505050505050565b6110066113c3565b6001600160a01b03811661106b5760405162461bcd60e51b815260206004820152602660248201527f4f776e61626c653a206e6577206f776e657220697320746865207a65726f206160448201526564647265737360d01b606482015260840161059c565b6110748161141d565b50565b61107f611c92565b611088826113a6565b6110a85760405163b7c882eb60e01b81526004810183905260240161059c565b60008281526007602052604080822081516202000081019283905290929091600384019161100091908390855b82829054906101000a900461ffff1661ffff16815260200190600201906020826001010492830192600103820291508084116110d557509498975050505050505050565b611122816113a6565b6110745760405162461bcd60e51b8152602060048201526018602482015277115490cdcc8c4e881a5b9d985b1a59081d1bdad95b88125160421b604482015260640161059c565b600081815260046020526040902080546001600160a01b0319166001600160a01b038416908117909155819061119e82610956565b6001600160a01b03167f8c5be1e5ebec7d5bd14f71427d1e84f3dd0314c0f7b2291e5b200ac8c7c3b92560405160405180910390a45050565b6000806111e383610956565b9050806001600160a01b0316846001600160a01b0316148061120a575061120a8185610d83565b8061064b5750836001600160a01b031661122384610501565b6001600160a01b031614949350505050565b826001600160a01b031661124882610956565b6001600160a01b03161461126e5760405162461bcd60e51b815260040161059c9061267d565b6001600160a01b0382166112d05760405162461bcd60e51b8152602060048201526024808201527f4552433732313a207472616e7366657220746f20746865207a65726f206164646044820152637265737360e01b606482015260840161059c565b6112dd8383836001611733565b826001600160a01b03166112f082610956565b6001600160a01b0316146113165760405162461bcd60e51b815260040161059c9061267d565b600081815260046020908152604080832080546001600160a01b03199081169091556001600160a01b0387811680865260038552838620805460001901905590871680865283862080546001019055868652600290945282852080549092168417909155905184937fddf252ad1be2c89b69c2b068fc378daa952ba7f163c4a11628f55a4df523b3ef91a4505050565b6000908152600260205260409020546001600160a01b0316151590565b6006546001600160a01b03163314610a4e5760405162461bcd60e51b815260206004820181905260248201527f4f776e61626c653a2063616c6c6572206973206e6f7420746865206f776e6572604482015260640161059c565b600680546001600160a01b038381166001600160a01b0319831681179093556040519116919082907f8be0079c531659141344cd1fd0a4f28419497f9722a3daafe3b4186f6b6457e090600090a35050565b606061147a826113a6565b61149a5760405163b7c882eb60e01b81526004810183905260240161059c565b60008281526007602052604090819020906114b4906117b5565b6114be60406117b5565b6040516020016114cf9291906126c2565b604051602081830303815290604052915060005b6114ee60408061259b565b8110156115ef578160030181611000811061150b5761150b612223565b601081049190910154600f9091166002026101000a900461ffff16156115dd57600061154061153b60408461276a565b6117b5565b9050600061155261153b60408561277e565b905060008282846115918860030188611000811061157257611572612223565b601091828204019190066002029054906101000a900461ffff16611848565b6040516020016115a49493929190612792565b604051602081830303815290604052905085816040516020016115c8929190612840565b60405160208183030381529060405295505050505b806115e78161224f565b9150506114e3565b5081604051602001611601919061286f565b604051602081830303815290604052915050919050565b610c2a8282604051806020016040528060008152506118da565b816001600160a01b0316836001600160a01b0316036116935760405162461bcd60e51b815260206004820152601960248201527f4552433732313a20617070726f766520746f2063616c6c657200000000000000604482015260640161059c565b6001600160a01b03838116600081815260056020908152604080832094871680845294825291829020805460ff191686151590811790915591519182527f17307eab39ab6107e8899845ad3d59bd9653f200f220920489ca2b5937696c31910160405180910390a3505050565b61170b848484611235565b6117178484848461190d565b610c605760405162461bcd60e51b815260040161059c90612899565b6001600160a01b03841615610c605760005b818110156117ae576007600061175b83866125b2565b815260208101919091526040016000206002015460ff1661179c5761178081846125b2565b6040516393db121960e01b815260040161059c91815260200190565b806117a68161224f565b915050611745565b5050505050565b606060006117c283611a0b565b600101905060008167ffffffffffffffff8111156117e2576117e2611da8565b6040519080825280601f01601f19166020018201604052801561180c576020820181803683370190505b5090508181016020015b600019016f181899199a1a9b1b9c1cb0b131b232b360811b600a86061a8153600a850494508461181657509392505050565b60408051606081018252600f600884901c81168252600484901c8116602083015283169181019190915260009061188581835b6020020151611ae3565b61189082600161187b565b61189b83600261187b565b6040516001600160f81b0319938416602082015291831660218301529091166022820152602301604051602081830303815290604052610df9906128eb565b6118e48383611b17565b6118f1600084848461190d565b61063d5760405162461bcd60e51b815260040161059c90612899565b60006001600160a01b0384163b15611a0357604051630a85bd0160e11b81526001600160a01b0385169063150b7a0290611951903390899088908890600401612922565b6020604051808303816000875af192505050801561198c575060408051601f3d908101601f191682019092526119899181019061295f565b60015b6119e9573d8080156119ba576040519150601f19603f3d011682016040523d82523d6000602084013e6119bf565b606091505b5080516000036119e15760405162461bcd60e51b815260040161059c90612899565b805181602001fd5b6001600160e01b031916630a85bd0160e11b14905061064b565b50600161064b565b60008072184f03e93ff9f4daa797ed6e38ed64bf6a1f0160401b8310611a4a5772184f03e93ff9f4daa797ed6e38ed64bf6a1f0160401b830492506040015b6d04ee2d6d415b85acef81000000008310611a76576d04ee2d6d415b85acef8100000000830492506020015b662386f26fc100008310611a9457662386f26fc10000830492506010015b6305f5e1008310611aac576305f5e100830492506008015b6127108310611ac057612710830492506004015b60648310611ad2576064830492506002015b600a83106104695760010192915050565b60006f181899199a1a9b1b9c1cb0b131b232b360811b8260ff1660108110611b0d57611b0d612223565b1a60f81b92915050565b6001600160a01b038216611b6d5760405162461bcd60e51b815260206004820181905260248201527f4552433732313a206d696e7420746f20746865207a65726f2061646472657373604482015260640161059c565b611b76816113a6565b15611bc35760405162461bcd60e51b815260206004820152601c60248201527f4552433732313a20746f6b656e20616c7265616479206d696e74656400000000604482015260640161059c565b611bd1600083836001611733565b611bda816113a6565b15611c275760405162461bcd60e51b815260206004820152601c60248201527f4552433732313a20746f6b656e20616c7265616479206d696e74656400000000604482015260640161059c565b6001600160a01b038216600081815260036020908152604080832080546001019055848352600290915280822080546001600160a01b0319168417905551839291907fddf252ad1be2c89b69c2b068fc378daa952ba7f163c4a11628f55a4df523b3ef908290a45050565b60405180620200000160405280611000906020820280368337509192915050565b6001600160e01b03198116811461107457600080fd5b600060208284031215611cdb57600080fd5b8135610df981611cb3565b60005b83811015611d01578181015183820152602001611ce9565b50506000910152565b60008151808452611d22816020860160208601611ce6565b601f01601f19169290920160200192915050565b602081526000610df96020830184611d0a565b600060208284031215611d5b57600080fd5b5035919050565b80356001600160a01b0381168114611d7957600080fd5b919050565b60008060408385031215611d9157600080fd5b611d9a83611d62565b946020939093013593505050565b634e487b7160e01b600052604160045260246000fd5b60008060008060808587031215611dd457600080fd5b611ddd85611d62565b9350611deb60208601611d62565b925060408501359150606085013567ffffffffffffffff80821115611e0f57600080fd5b818701915087601f830112611e2357600080fd5b813581811115611e3557611e35611da8565b604051601f8201601f19908116603f01168101908382118183101715611e5d57611e5d611da8565b816040528281528a6020848701011115611e7657600080fd5b82602086016020830137600060208483010152809550505050505092959194509250565b848152608060208201526000611eb36080830186611d0a565b84151560408401528281036060840152611ecd8185611d0a565b979650505050505050565b600080600060608486031215611eed57600080fd5b611ef684611d62565b9250611f0460208501611d62565b9150604084013590509250925092565b604080825283519082018190526000906020906060840190828701845b82811015611f565781516001600160a01b031684529284019290840190600101611f31565b5050508381038285015284518082528583019183019060005b81811015611f8b57835183529284019291840191600101611f6f565b5090979650505050505050565b600060208284031215611faa57600080fd5b610df982611d62565b600080600060408486031215611fc857600080fd5b83359250602084013567ffffffffffffffff80821115611fe757600080fd5b818601915086601f830112611ffb57600080fd5b81358181111561200a57600080fd5b87602082850101111561201c57600080fd5b6020830194508093505050509250925092565b6000806040838503121561204257600080fd5b61204b83611d62565b91506020830135801515811461206057600080fd5b809150509250929050565b6000806040838503121561207e57600080fd5b61208783611d62565b915061209560208401611d62565b90509250929050565b60008083601f8401126120b057600080fd5b50813567ffffffffffffffff8111156120c857600080fd5b6020830191508360208260051b85010111156120e357600080fd5b9250929050565b60008060008060006060868803121561210257600080fd5b85359450602086013567ffffffffffffffff8082111561212157600080fd5b61212d89838a0161209e565b9096509450604088013591508082111561214657600080fd5b506121538882890161209e565b969995985093965092949392505050565b620200008101818360005b61100081101561219357815161ffff1683526020928301929091019060010161216f565b50505092915050565b600181811c908216806121b057607f821691505b6020821081036121d057634e487b7160e01b600052602260045260246000fd5b50919050565b6020808252602d908201527f4552433732313a2063616c6c6572206973206e6f7420746f6b656e206f776e6560408201526c1c881bdc88185c1c1c9bdd9959609a1b606082015260800190565b634e487b7160e01b600052603260045260246000fd5b634e487b7160e01b600052601160045260246000fd5b60006001820161226157612261612239565b5060010190565b8181038181111561046957610469612239565b601f82111561063d57600081815260208120601f850160051c810160208610156122a25750805b601f850160051c820191505b818110156122c1578281556001016122ae565b505050505050565b67ffffffffffffffff8311156122e1576122e1611da8565b6122f5836122ef835461219c565b8361227b565b6000601f84116001811461232957600085156123115750838201355b600019600387901b1c1916600186901b1783556117ae565b600083815260209020601f19861690835b8281101561235a578685013582556020948501946001909201910161233a565b50868210156123775760001960f88860031b161c19848701351681555b505060018560011b0183555050505050565b815167ffffffffffffffff8111156123a3576123a3611da8565b6123b7816123b1845461219c565b8461227b565b602080601f8311600181146123ec57600084156123d45750858301515b600019600386901b1c1916600185901b1785556122c1565b600085815260208120601f198616915b8281101561241b578886015182559484019460019091019084016123fc565b50858210156124395787850151600019600388901b60f8161c191681555b5050505050600190811b01905550565b83815260406020820152816040820152818360608301376000818301606090810191909152601f909201601f1916010192915050565b6000815461248c8161219c565b600182811680156124a457600181146124b9576124e8565b60ff19841687528215158302870194506124e8565b8560005260208060002060005b858110156124df5781548a8201529084019082016124c6565b50505082870194505b5050505092915050565b6803d913730b6b2911d160bd1b81526000612510600983018661247f565b7f222c20226465736372697074696f6e223a202253706c6174746572205061727481526279202360e81b60208201528460238201527f2c2022696d616765223a2022646174613a696d6167652f7376672b786d6c3b756043820152631d198e0b60e21b6063820152612585606782018561247f565b6222207d60e81b81526003019695505050505050565b808202811582820484141761046957610469612239565b8082018082111561046957610469612239565b803561ffff81168114611d7957600080fd5b6000602082840312156125e957600080fd5b610df9826125c5565b8183526000602080850194508260005b858110156126295761ffff612616836125c5565b1687529582019590820190600101612602565b509495945050505050565b86815260806020820152600061264e6080830187896125f2565b82810360408401526126618186886125f2565b91505060018060a01b0383166060830152979650505050505050565b60208082526025908201527f4552433732313a207472616e736665722066726f6d20696e636f72726563742060408201526437bbb732b960d91b606082015260800190565b7f3c73766720786d6c6e733d27687474703a2f2f7777772e77332e6f72672f32308152740181817b9bb3393903b34b2bba137bc1e939810181605d1b602082015260008351612718816035850160208801611ce6565b600160fd1b6035918401918201528351612739816036840160208801611ce6565b61139f60f11b60369290910191820152603801949350505050565b634e487b7160e01b600052601260045260246000fd5b60008261277957612779612754565b500690565b60008261278d5761278d612754565b500490565b693c7061746820643d274d60b01b8152600085516127b781600a850160208a01611ce6565b600160fd1b600a9184019182015285516127d881600b840160208a01611ce6565b640d062ec62960db1b600b929091019182015284516127fe816010840160208901611ce6565b697a272066696c6c3d272360b01b601092909101918201526001600160e81b031993909316601a84015250506213979f60e91b601d8201526020019392505050565b60008351612852818460208801611ce6565b835190830190612866818360208801611ce6565b01949350505050565b60008251612881818460208701611ce6565b651e17b9bb339f60d11b920191825250600601919050565b60208082526032908201527f4552433732313a207472616e7366657220746f206e6f6e20455243373231526560408201527131b2b4bb32b91034b6b83632b6b2b73a32b960711b606082015260800190565b805160208201516001600160e81b0319808216929190600383101561291a5780818460030360031b1b83161693505b505050919050565b6001600160a01b038581168252841660208201526040810183905260806060820181905260009061295590830184611d0a565b9695505050505050565b60006020828403121561297157600080fd5b8151610df981611cb356fea2646970667358221220756e1073cf6dfc2d01610cf189e89a2ea9c2b5d8be80a9cbcaf4a284dfb063e264736f6c63430008110033697066733a2f2f516d64476f7536616261527459416e4e326f716f46394b3457757241623872533746796d77416570466971636832",
  "linkReferences": {},
  "deployedLinkReferences": {}
}